:100000000C9434000C9449000C9449000C94490061
:100010000C9449000C9449000C9449000C9449003C
:100020000C9449000C9449000C9449000C9449002C
:100030000C9449000C9449000C9449000C9449001C
:100040000C9449000C9449000C9449000C9449000C
:100050000C9449000C9449000C9449000C944900FC
:100060000C9449000C94490011241FBECFEFD8E036
:10007000DEBFCDBF11E0A0E0B1E0EAE4F7E002C0EE
:1000800005900D92AC32B107D9F70E9427030C946A
:10009000A3030C9400009093C5008093C40088E1F2
:1000A0008093C10086E08093C20008959091C000C3
:1000B00095FFFCCF8093C60008958091C00087FF14
:1000C000FCCF8091C6000895CF93DF93EC01899116
:1000D000882339F00E9456008AE18A95F1F700C022
:1000E000F6CF8AE0DF91CF910C94560040980895A6
:1000F000409A08950E9478008AE18A95F1F700C03D
:100100000C9476002A9808952A9A08958BB183FB5F
:10011000882780F991E089270895FF920F931F9314
:10012000CF93DF93F42EEC018C01060F171FC0173D
:10013000D10759F08881FF2021F00E94160388839F
:1001400002C00E9416032196F2CFDF91CF911F913A
:100150000F91FF900895EF92FF920F931F93CF930B
:10016000DF9300D01F92CDB7DEB78B017A012B83CE
:100170008A830E9482008A81898341E061E070E085
:10018000CE0101960E948D002B81422FB701C8013C
:100190000E948D000E94840089810F900F900F9023
:1001A000DF91CF911F910F91FF90EF9008958F7184
:1001B00020E080620C94AB001F93CF93DF931F92DB
:1001C000CDB7DEB7182F6260698341E050E0BE0111
:1001D0006F5F7F4F80E00E94D70087EB9BE0019725
:1001E000F1F700C00000898180FD03C00E94760005
:1001F00004C01123D9F30E9478000F90DF91CF91B2
:100200001F910895CF93DF931F92CDB7DEB78D7FF7
:10021000898341E050E0BE016F5F7F4F80E00E9424
:10022000D7000E9476000F90DF91CF910895AB0127
:10023000BC0180E10C94D700CF93DF931F92CDB720
:10024000DEB780E7898341E050E0BE016F5F7F4FFA
:1002500087E00E94D7000F90DF91CF9108954F92D1
:100260005F926F927F928F929F92AF92CF92EF9216
:10027000FF920F931F93CF93DF9300D000D000D055
:10028000CDB7DEB7182FF62E4F88588C6D8C7E8C2C
:10029000498341E050E0BE016F5F7F4F81E02E83D4
:1002A0000E94D7002E81298341E050E0BE016F5F9C
:1002B0007F4F82E00E94D700098341E050E0BE01F9
:1002C0006F5F7F4F83E00E94D700E98241E050E0FA
:1002D000BE016F5F7F4F84E00E94D700C98241E07A
:1002E00050E0BE016F5F7F4F85E00E94D700A9827A
:1002F00041E050E0BE016F5F7F4F86E00E94D70073
:100300008114910421F045E050E0B4010BC097EE58
:1003100099839A839B839C839D8345E050E0BE0133
:100320006F5F7F4F8AE00E94D7004114510421F093
:1003300045E050E0B2010BC092EC99839A839B8315
:100340009C839D8345E050E0BE016F5F7F4F8BE053
:100350000E94D700898D898341E050E0BE016F5F24
:100360007F4F8CE00E94D7008A8D898341E050E066
:10037000BE016F5F7F4F8DE00E94D7008B8D898318
:1003800041E050E0BE016F5F7F4F8EE00E94D700DA
:100390008C8D898341E050E0BE016F5F7F4F8FE01D
:1003A0000E94D7006114710421F065E070E0C30180
:1003B0000AC097EE99839A839B839C839D8365E013
:1003C00070E0CE0101960E9417018F8D898341E074
:1003D00050E0BE016F5F7F4F81E10E94D70088A18E
:1003E000898341E050E0BE016F5F7F4F82E10E9450
:1003F000D70089A1898341E050E0BE016F5F7F4F44
:1004000083E10E94D7008AA1898341E050E0BE01C8
:100410006F5F7F4F84E10E94D7008BA1898341E009
:1004200050E0BE016F5F7F4F85E10E94D7008CA135
:10043000898341E050E0BE016F5F7F4F86E10E94FB
:10044000D70011FF05C0612F8F2D0E94DC0003C073
:10045000812F0E94020126960FB6F894DEBF0FBED0
:10046000CDBFDF91CF911F910F91FF90EF90CF9073
:10047000AF909F908F907F906F905F904F90089576
:100480008F929F92AF92CF92EF920F9391E0411192
:1004900001C090E0813011F48BE001C08AE01F922E
:1004A0001F921F921F921F926F931F921F9226EC12
:1004B0002F9325EC2F9324EC2F9323EC2F931F9253
:1004C0001F92812C912C2FE0A22E32E0C32E43E00C
:1004D000E42E03E023E0492F61E00E942F018DB755
:1004E0009EB70E960FB6F8949EBF0FBE8DBF0F91AC
:1004F000EF90CF90AF909F908F90089521E08F71F3
:100500000C94AB001F93CF93DF931F92CDB7DEB750
:10051000182F41E050E0BE016F5F7F4F80E00E94E6
:100520007E02998190FD11C09160998341E050E075
:10053000BE016F5F7F4F80E00E94D700112319F04A
:100540000E94780002C00E9476000F90DF91CF9148
:100550001F910895CF93DF931F92CDB7DEB741E08F
:1005600050E0BE016F5F7F4F80E00E947E02898174
:1005700080FF0CC08E7F898341E050E0BE016F5F39
:100580007F4F80E00E94D7000E9476000F90DF919D
:10059000CF9108951F93CF93DF931F92CDB7DEB70E
:1005A000142F20E0AB01BC0180EA0E94AB001130A7
:1005B00021F489830E947A0089810F90DF91CF9185
:1005C0001F910895EF92FF920F931F93CF93DF93A4
:1005D0001F92CDB7DEB77C018B010E94760021E02F
:1005E000A801B70181E60E94AB0089830E947800D0
:1005F00089810F90DF91CF911F910F91FF90EF9024
:10060000089521E040E050E060E070E08FEF0C944E
:10061000AB000E940103807408950E940103807260
:10062000089588E285B981E58CBD08958EBD0DB42D
:1006300007FC02C08EB5089508958FEE8AB984E054
:100640008BB908959BB184E089278BB90895CF9326
:10065000DF931F92CDB7DEB783E390E00E944B009B
:100660000E9411030E941D0340E061E080E00E94AF
:10067000400280E091E00E9464008FE3F82E8091B8
:10068000C00087FDFCCF0E945D00898341E061E0EE
:1006900070E0CE0101960E94CA028DE091E00E94B6
:1006A000640089810E9456008CE091E00E94640001
:1006B0000E9486008823E1F30E940D038823C1F382
:1006C0000E941C0181E00E94820200E010E00E9472
:1006D0008600882389F00E940903882369F08981B4
:1006E00061E070E090E00E94E20287E592E001970D
:1006F000F1F700C000000BC00F319EE4190709F4A8
:10070000F9820F5F1F4F00328EE4180701F70E9435
:100710001C018CE191E00E94640089810E945600D6
:100720008CE091E00E9464008CE091E00E94640003
:1007300087E592E00197F1F700C000000E94AA024D
:0A0740000E9422039CCFF894FFCF23
:10074A0052756E6E696E672E2E2E0D0A00596F75E0
:10075A0020656E74657265642E2E2E00596F7520A1
:0C076A0072656365697665642E2E2E00B2
:00000001FF
